:100000000C942A000C9447000C9447000C94470071
:100010000C9447000C9447000C9447000C94BC06C9
:100020000C9447000C9489060C9447000C944700EC
:100030000C9447000C9447000C9447000C94470024
:100040000C9447000C9447000C9447000C94470014
:100050000C94470011241FBECFE5D8E0DEBFCDBF12
:1000600010E0A0E6B0E0EEE1F4E202C005900D92EF
:10007000AE36B107D9F710E0AEE6B0E001C01D9290
:10008000A237B107E1F70E9499100C940D120C945D
:100090000000EF92FF920F931F937B018C0120E0F1
:1000A00030E040E05FE40E94490388238CF0C801FF
:1000B000B70120E030E040E05FE40E94C1010E940F
:1000C000A9039B01AC01205030404040504806C07D
:1000D000C801B7010E94A9039B01AC01B901CA0183
:1000E0001F910F91FF90EF900895A0E0B0E0EBE733
:1000F000F0E00C94D611DC012B01FA019C919230B6
:1001000008F439C1EB018881823008F433C194309E
:1001100069F4843009F02FC111969C91119789815F
:10012000981709F428C1A0E6B0E025C1843009F48D
:1001300021C18230A9F4923009F01DC19A01AD01AC
:1001400088E0EA010990AE01E90109929E0181501F
:10015000C1F7E201898111969C918923818308C1AD
:10016000923009F407C112962D903C901397EB0141
:100170008A819B811496AD90BD90CD90DC901797AD
:10018000EC80FD800E811F819101281B390BB90184
:1001900037FF04C066277727621B730B6032710537
:1001A0000CF061C0121613066CF537014801062EDB
:1001B00004C096948794779467940A94D2F721E0C8
:1001C00030E040E050E004C0220F331F441F551FB1
:1001D0006A95D2F721503040404050402E213F21B7
:1001E00040235123211531054105510521F021E01E
:1001F00030E040E050E079018A01E628F72808293C
:1002000019293CC0232BD1F1260E371E350146019A
:10021000062E04C096948794779467940A94D2F734
:1002200021E030E040E050E004C0220F331F441FC3
:10023000551F6A95D2F721503040404050402A2146
:100240003B214C215D21211531054105510521F04E
:1002500021E030E040E050E059016A01A628B728CB
:10026000C828D9280BC0821593052CF01C01AA249C
:10027000BB24650103C0EE24FF24870111969C91E5
:10028000D20111968C91981709F445C0992339F041
:10029000A80197012A193B094C095D0906C0A6016E
:1002A00095012E193F09400B510B57FD08C01182D3
:1002B0003382228224833583468357831DC081E0A5
:1002C00081833382228288279927DC01821B930B4A
:1002D000A40BB50B84839583A683B7830DC0220F2F
:1002E000331F441F551F24833583468357838281E0
:1002F000938101979383828324813581468157813D
:10030000DA01C9010197A109B1098F5F9F4FAF4F72
:10031000BF4328F30BC0918333822282EA0CFB1C7B
:100320000C1D1D1DE482F5820683178383E0808304
:10033000248135814681578157FF1AC0C901AA27F8
:1003400097FDA095BA2F81709070A070B0705695EF
:10035000479537952795822B932BA42BB52B848318
:100360009583A683B7838281938101969383828349
:10037000DF0101C0D201CD01CDB7DEB7E2E10C94BF
:10038000F211A0E2B0E0E7ECF1E00C94E211698335
:100390007A838B839C832D833E834F835887E9E048
:1003A000EE2EF12CEC0EFD1ECE010196B7010E943F
:1003B000D2048E010F5E1F4FCE010596B8010E9438
:1003C000D2048A8991E089278A8BC701B801AE01DE
:1003D000475E5F4F0E9475000E94FD03A096E6E015
:1003E0000C94FE11A0E2B0E0E8EFF1E00C94E21111
:1003F00069837A838B839C832D833E834F835887C5
:10040000F9E0EF2EF12CEC0EFD1ECE010196B701A6
:100410000E94D2048E010F5E1F4FCE010596B801D7
:100420000E94D204C701B801AE01475E5F4F0E942F
:1004300075000E94FD03A096E6E00C94FE11A0E278
:10044000B0E0E5E2F2E00C94D61169837A838B8305
:100450009C832D833E834F835887CE010196BE0136
:10046000675F7F4F0E94D204CE010596BE016F5E8A
:100470007F4F0E94D2049985923088F0898982301A
:10048000C8F0943019F4823051F404C0843029F457
:10049000923081F480E690E0C6C0923049F420E0CA
:1004A0009A858A89981321E02A87CE010996BBC0D4
:1004B000823049F420E09A858A89981321E02A8BBA
:1004C000CE014196B0C02D843E844F8458886D88FB
:1004D0007E888F88988CEE24FF248701AA24BB2471
:1004E000650140E050E060E070E0E0E0F0E0C10174
:1004F00081709070892BE9F0E60CF71C081D191D1E
:100500009A01AB012A0D3B1D4C1D5D1D80E090E062
:10051000A0E0B0E0E614F7040805190520F481E036
:1005200090E0A0E0B0E0BA01A901480F591F6A1F8E
:100530007B1FAA0CBB1CCC1CDD1C97FE08C081E0F5
:1005400090E0A0E0B0E0A82AB92ACA2ADB2A3196B6
:10055000E032F10549F0660C771C881C991C569412
:10056000479437942794C3CFFA85EA892B893C892D
:100570008B859C85280F391F2E5F3F4F17C0CA01FE
:1005800081709070892B61F016950795F794E79428
:1005900080E090E0A0E0B0E8E82AF92A0A2B1B2BC3
:1005A00076956795579547952F5F3F4F77FDE7CF36
:1005B0000CC0440F551F661F771F17FD4160EE0CDE
:1005C000FF1C001F111F21503040403090E05907A0
:1005D00090E0690790E4790760F32B8F3C8FDB0193
:1005E000CA018F779070A070B07080349105A1051A
:1005F000B10561F447FD0AC0E114F10401051105DC
:1006000029F0405C5F4F6F4F7F4F40781A8EFE1786
:1006100011F081E08A8F4D8F5E8F6F8F78A383E01A
:10062000898FCE0149960E94FD03A096E2E10C94C9
:10063000F211A8E1B0E0EFE1F3E00C94E21169837C
:100640007A838B839C832D833E834F83588789E0F5
:10065000E82EF12CEC0EFD1ECE010196B7010E9492
:10066000D2048E010F5E1F4FCE010596B8010E9485
:10067000D2048985823040F08989823028F0C70110
:10068000B8010E944A0501C08FEF6896E6E00C941D
:10069000FE11A8E1B0E0EFE4F3E00C94E21169830D
:1006A0007A838B839C832D833E834F83588789E095
:1006B000E82EF12CEC0EFD1ECE010196B7010E9432
:1006C000D2048E010F5E1F4FCE010596B8010E9425
:1006D000D2048985823040F08989823028F0C701B0
:1006E000B8010E944A0501C08FEF6896E6E00C94BD
:1006F000FE11A8E1B0E0EFE7F3E00C94E2116983AA
:100700007A838B839C832D833E834F83588789E034
:10071000E82EF12CEC0EFD1ECE010196B7010E94D1
:10072000D2048E010F5E1F4FCE010596B8010E94C4
:10073000D2048985823040F08989823028F0C7014F
:10074000B8010E944A0501C081E06896E6E00C9479
:10075000FE11ACE0B0E0EFEAF3E00C94E61169833F
:100760007A838B839C83CE010196BE016B5F7F4FA2
:100770000E94D2048D81823061F1823050F1843048
:1007800021F48E81882351F12EC02F81388537FDC9
:1007900020C06E812F3131051CF06623F9F023C093
:1007A0008EE190E0821B930B29853A854B855C8511
:1007B00004C056954795379527958A95D2F76623B5
:1007C000B1F050954095309521953F4F4F4F5F4F79
:1007D0000EC020E030E040E050E009C02FEF3FEFD6
:1007E0004FEF5FE704C020E030E040E050E8B9019F
:1007F000CA012C96E2E00C940212DF92EF92FF9273
:100800000F931F93FC01E480F58006811781D1804E
:100810008081823048F480E090E0A0E1B0E0E82AF6
:10082000F92A0A2B1B2BA5C0843009F49FC0823003
:1008300021F4EE24FF24870105C0E114F104010531
:10084000110519F4E0E0F0E096C0628173819FEF3A
:10085000623879070CF05BC022E83FEF261B370BAC
:100860002A3131052CF020E030E040E050E02AC091
:10087000B801A701022E04C0769567955795479554
:100880000A94D2F781E090E0A0E0B0E004C0880FC5
:10089000991FAA1FBB1F2A95D2F70197A109B10979
:1008A0008E219F21A023B1230097A105B10521F03E
:1008B00081E090E0A0E0B0E09A01AB01282B392B59
:1008C0004A2B5B2BDA01C9018F779070A070B07052
:1008D00080349105A105B10539F427FF09C0205CDA
:1008E0003F4F4F4F5F4F04C0215C3F4F4F4F5F4F13
:1008F000E0E0F0E02030A0E03A07A0E04A07A0E402
:100900005A0710F0E1E0F0E079018A0127C0603871
:10091000710564F5FB01E158FF4FD801C7018F77DE
:100920009070A070B07080349105A105B10539F4C4
:10093000E7FE0DC080E490E0A0E0B0E004C08FE3EB
:1009400090E0A0E0B0E0E80EF91E0A1F1B1F17FFA1
:1009500005C016950795F794E794319687E01695AC
:100960000795F794E7948A95D1F705C0EE24FF2404
:100970008701EFEFF0E06E2F679566276795902F60
:100980009F77D794DD24D7948E2F8695492F462BB9
:10099000582F5D29B701CA011F910F91FF90EF9069
:1009A000DF900895FC01DB01408151812281622F9B
:1009B0006F7770E0221F2227221F9381892F880FD3
:1009C000822B282F30E0991F9927991F11969C930D
:1009D000119721153105A9F54115510561057105DD
:1009E00011F482E037C082E89FEF13969C938E93B8
:1009F00012979A01AB0167E0220F331F441F551F66
:100A00006A95D1F783E08C930DC0220F331F441FEA
:100A1000551F12968D919C911397019713969C9355
:100A20008E931297203080E0380780E0480780E4FA
:100A3000580758F314962D933D934D935C93179755
:100A400008952F3F310579F4411551056105710570
:100A500019F484E08C93089564FF03C081E08C93C3
:100A600012C01C9210C02F57304013963C932E9307
:100A7000129783E08C9387E0440F551F661F771F02
:100A80008A95D1F7706414964D935D936D937C9322
:100A9000179708951F93DC01FB019C91923008F495
:100AA00047C08081823008F443C0943051F41196DD
:100AB0001C91843099F58181682F70E0611B710968
:100AC0003FC0843021F0923031F48230B9F181811D
:100AD000882389F12DC011961C9111978230F1F075
:100AE00081811817D9F412962D913C911397828128
:100AF00093818217930794F028173907BCF0149656
:100B00008D919D910D90BC91A02D248135814681C0
:100B10005781281739074A075B0718F4112341F05A
:100B20000AC082179307A407B50740F4112319F0F0
:100B300061E070E005C06FEF7FEF02C060E070E041
:100B4000CB011F910895DF93CF9300D000D0CDB794
:100B5000DEB79C838B831A821982EBE2F0E082E09D
:100B60008083EAE2F0E088E18083A0E4B0E0EB81FA
:100B7000FC819181EB81FC818081982BEB81FC8150
:100B80008281892B80688C93EB81FC8183819481A5
:100B9000A581B681880F991FAA1FBB1F880F991FB7
:100BA000AA1FBB1F880F991FAA1FBB1F9C01AD0165
:100BB00080E092E1AAE7B0E0BC01CD010E94B4114F
:100BC000DA01C90101979A838983E0E4F0E0898121
:100BD0009A81892F99278083E9E2F0E089818083D7
:100BE0000F900F900F900F90CF91DF910895DF93AA
:100BF000CF930F92CDB7DEB78983EBE2F0E080812F
:100C0000882F90E0807290700097B9F3ECE2F0E0EA
:100C1000898180830F90CF91DF910895DF93CF93E7
:100C2000CDB7DEB7EBE2F0E080818823DCF7ECE2C1
:100C3000F0E08081CF91DF910895DF93CF9300D0D2
:100C40000F92CDB7DEB79B838A8319820EC089814C
:100C5000282F30E08A819B81FC01E20FF31F808105
:100C60000E94F70589818F5F89838981282F30E071
:100C70008A819B81FC01E20FF31F8081882339F771
:100C80000F900F900F90CF91DF9108950F931F93C6
:100C9000DF93CF9300D00F92CDB7DEB79B838A83CB
:100CA00019828981282F30E08A819B818C01020F73
:100CB000131F0E940E06F80180830FC089818F5F89
:100CC00089838981282F30E08A819B818C01020FE2
:100CD000131F0E940E06F80180838981282F30E0BF
:100CE0008A819B81FC01E20FF31F8081833231F7FF
:100CF0008981282F30E08A819B81FC01E20FF31F5C
:100D000010820F900F900F90CF91DF911F910F9154
:100D100008951F920F920FB60F9211242F933F93B5
:100D20004F935F936F937F938F939F93AF93BF93F3
:100D3000EF93FF93DF93CF93CDB7DEB780916E0033
:100D400090916F00009729F0E0916E00F0916F0094
:100D50000995CF91DF91FF91EF91BF91AF919F9155
:100D60008F917F916F915F914F913F912F910F9054
:100D70000FBE0F901F9018951F920F920FB60F92F3
:100D800011242F933F934F935F936F937F938F9390
:100D90009F93AF93BF93EF93FF93DF93CF93CDB721
:100DA000DEB780916E0090916F00009729F0E0917E
:100DB0006E00F0916F000995CF91DF91FF91EF9157
:100DC000BF91AF919F918F917F916F915F914F9163
:100DD0003F912F910F900FBE0F901F901895DF93AA
:100DE000CF9300D0CDB7DEB79A838983ACE4B0E06F
:100DF000E981FA818081918111969C938E93E9819A
:100E0000FA818781882391F4A9E5B0E0E9E5F0E073
:100E1000808184608C93EFE4F0E088E08083AEE42E
:100E2000B0E0E981FA8186818C9344C0E981FA813E
:100E300087818830F9F4AAE4B0E0E981FA818281FF
:100E4000938111969C938E93A9E5B0E0E9E5F0E0DB
:100E5000808180618C93EFE4F0E088E08083AEE4F1
:100E6000B0E0E981FA819681E981FA818781892B55
:100E70008C9320C0A6E4B0E0E981FA818481958159
:100E800011969C938E93AAE4B0E0E981FA81828165
:100E9000938111969C938E93EFE4F0E082E8808337
:100EA000AEE4B0E0E981FA819681E981FA81878137
:100EB000892B8C930F900F90CF91DF910895DF9342
:100EC000CF93CDB7DEB7ECE4F0E011821082EEE410
:100ED000F0E01082CF91DF910895DF93CF9300D09F
:100EE000CDB7DEB79A83898389819A8190936F0009
:100EF00080936E000F900F90CF91DF910895DF9354
:100F0000CF930F92CDB7DEB7898381E064E041E0F3
:100F10000E943A0881E065E041E00E943A0881E0E1
:100F200066E040E00E943A0881E067E041E00E940C
:100F30003A088981813029F4EDE2F0E080E5808390
:100F400007C08981882321F4EDE2F0E080E480830A
:100F5000AEE2B0E0EEE2F0E080818E7F8C930F9005
:100F6000CF91DF910895DF93CF930F92CDB7DEB786
:100F70008983EFE2F0E089818083EEE2F0E0808116
:100F80008823DCF7EFE2F0E080810F90CF91DF91D2
:100F90000895DF93CF9300D00F92CDB7DEB79B8338
:100FA0008A8319820EC08981282F30E08A819B8133
:100FB000FC01E20FF31F80810E94B30789818F5FDC
:100FC00089838981282F30E08A819B81FC01E20F8F
:100FD000F31F8081882339F783E20E94B3070F90C3
:100FE0000F900F90CF91DF9108950F931F93DF9390
:100FF000CF9300D00F92CDB7DEB79B838A8319823F
:101000008981282F30E08A819B818C01020F131F78
:101010008FEF0E94B307F801808310C089818F5F32
:1010200089838981282F30E08A819B818C01020F7E
:10103000131F8FEF0E94B307F80180838981282F47
:1010400030E08A819B81FC01E20FF31F80818332B3
:1010500029F78981282F30E08A819B81FC01E20FEA
:10106000F31F10820F900F900F90CF91DF911F917F
:101070000F910895DF93CF9300D000D00F92CDB79A
:10108000DEB789836A834B838A81883008F0D5C0B4
:101090008981843008F0D1C08981282F30E03D83D8
:1010A0002C838C819D818130910509F443C02C8172
:1010B0003D81223031052CF48C819D81009771F0A7
:1010C000BCC02C813D812230310509F45FC08C8188
:1010D0009D818330910509F485C0AFC08B8181303B
:1010E000A1F4AAE3B0E0EAE3F0E08081482F8A812E
:1010F000282F30E081E090E0022E02C0880F991F77
:101100000A94E2F7842B8C9398C0AAE3B0E0EAE358
:10111000F0E08081482F8A81282F30E081E090E044
:10112000022E02C0880F991F0A94E2F7809584234B
:101130008C9383C08B818130A1F4A7E3B0E0E7E317
:10114000F0E08081482F8A81282F30E081E090E014
:10115000022E02C0880F991F0A94E2F7842B8C9309
:101160006CC0A7E3B0E0E7E3F0E08081482F8A811C
:10117000282F30E081E090E0022E02C0880F991FF6
:101180000A94E2F7809584238C9357C08B81813039
:10119000A1F4A4E3B0E0E4E3F0E08081482F8A8189
:1011A000282F30E081E090E0022E02C0880F991FC6
:1011B0000A94E2F7842B8C9340C0A4E3B0E0E4E30C
:1011C000F0E08081482F8A81282F30E081E090E094
:1011D000022E02C0880F991F0A94E2F7809584239B
:1011E0008C932BC08B818130A1F4A1E3B0E0E1E3CB
:1011F000F0E08081482F8A81282F30E081E090E064
:10120000022E02C0880F991F0A94E2F7842B8C9358
:1012100014C0A1E3B0E0E1E3F0E08081482F8A81CF
:10122000282F30E081E090E0022E02C0880F991F45
:101230000A94E2F7809584238C930F900F900F907F
:101240000F900F90CF91DF910895DF93CF9300D04F
:1012500000D00F92CDB7DEB789836A834B838A8132
:10126000883008F0D5C08981843008F0D1C08981E8
:10127000282F30E03D832C838C819D818130910526
:1012800009F443C02C813D81223031052CF48C813E
:101290009D81009771F0BCC02C813D8122303105C9
:1012A00009F45FC08C819D818330910509F485C06C
:1012B000AFC08B818130A1F4ABE3B0E0EBE3F0E0B1
:1012C0008081482F8A81282F30E081E090E0022E33
:1012D00002C0880F991F0A94E2F7842B8C9398C060
:1012E000ABE3B0E0EBE3F0E08081482F8A81282F68
:1012F00030E081E090E0022E02C0880F991F0A942E
:10130000E2F7809584238C9383C08B818130A1F494
:10131000A8E3B0E0E8E3F0E08081482F8A81282F3D
:1013200030E081E090E0022E02C0880F991F0A94FD
:10133000E2F7842B8C936CC0A8E3B0E0E8E3F0E024
:101340008081482F8A81282F30E081E090E0022EB2
:1013500002C0880F991F0A94E2F7809584238C932A
:1013600057C08B818130A1F4A5E3B0E0E5E3F0E064
:101370008081482F8A81282F30E081E090E0022E82
:1013800002C0880F991F0A94E2F7842B8C9340C007
:10139000A5E3B0E0E5E3F0E08081482F8A81282FC3
:1013A00030E081E090E0022E02C0880F991F0A947D
:1013B000E2F7809584238C932BC08B818130A1F43C
:1013C000A2E3B0E0E2E3F0E08081482F8A81282F99
:1013D00030E081E090E0022E02C0880F991F0A944D
:1013E000E2F7842B8C9314C0A2E3B0E0E2E3F0E0D8
:1013F0008081482F8A81282F30E081E090E0022E02
:1014000002C0880F991F0A94E2F7809584238C9379
:101410000F900F900F900F900F90CF91DF91089544
:10142000DF93CF9300D000D00F92CDB7DEB78A8381
:101430006B8319828B81883008F084C08A81843064
:1014400008F080C08A81282F30E03D832C834C81B6
:101450005D814130510579F18C819D81823091050A
:1014600034F42C813D812115310569F06BC04C812C
:101470005D8142305105B9F18C819D8183309105A8
:1014800009F449C05FC0E9E3F0E08081282F30E033
:101490008B81882F90E0A90102C0559547958A95C8
:1014A000E2F7CA0181709070882319F081E0898386
:1014B00049C0198247C0E6E3F0E08081282F30E080
:1014C0008B81882F90E0A90102C0559547958A9598
:1014D000E2F7CA0181709070882319F081E0898356
:1014E00031C019822FC0E3E3F0E08081282F30E083
:1014F0008B81882F90E0A90102C0559547958A9568
:10150000E2F7CA0181709070882319F081E0898325
:1015100019C0198217C0E0E3F0E08081282F30E085
:101520008B81882F90E0A90102C0559547958A9537
:10153000E2F7CA0181709070882319F081E08983F5
:1015400001C0198289810F900F900F900F900F901A
:10155000CF91DF910895DF93CF9300D000D0CDB726
:10156000DEB789836A838981843090F58981282F49
:1015700030E03C832B838B819C8181309105D1F0BD
:101580002B813C81223031052CF48B819C8100978A
:1015900061F01EC02B813C812230310581F08B81AE
:1015A0009C818330910581F013C0EAE3F0E08A81E9
:1015B00080830EC0E7E3F0E08A81808309C0E4E322
:1015C000F0E08A81808304C0E1E3F0E08A818083D7
:1015D0000F900F900F900F90CF91DF910895DF93B0
:1015E000CF9300D000D0CDB7DEB789836A838981DD
:1015F000843090F58981282F30E03C832B838B81C8
:101600009C8181309105D1F02B813C8122303105C4
:101610002CF48B819C81009761F01EC02B813C8152
:101620002230310581F08B819C818330910581F0DE
:1016300013C0EBE3F0E08A8180830EC0E8E3F0E0C2
:101640008A81808309C0E5E3F0E08A81808304C059
:10165000E2E3F0E08A8180830F900F900F900F906B
:10166000CF91DF910895DF93CF9300D000D0CDB715
:10167000DEB78A8319828A81843090F58A81282F87
:1016800030E03C832B838B819C8181309105D1F0AC
:101690002B813C81223031052CF48B819C81009779
:1016A00061F01EC02B813C812230310581F08B819D
:1016B0009C818330910581F013C0E9E3F0E08081E3
:1016C00089830EC0E6E3F0E08081898309C0E3E30B
:1016D000F0E08081898304C0E0E3F0E080818983C9
:1016E00089810F900F900F900F90CF91DF91089507
:1016F000DF93CF93CDB7DEB783E065E041E00E9492
:101700003A08CF91DF910895DF93CF93CDB7DEB73D
:101710002A970FB6F894DEBF0FBECDBF9A87898790
:101720001A82198289859A859C838B838FE19EE436
:101730009E838D8382E08F8388E18887CE01019626
:101740000E94EF062A960FB6F894DEBF0FBECDBFFB
:10175000CF91DF910895DF93CF93CDB7DEB72E976A
:101760000FB6F894DEBF0FBECDBF83E060E041E06E
:101770000E943A0881E064E041E00E943A080E9439
:10178000830C0E946B0C81E00E947F0780E090E058
:10179000A8ECB2E48B879C87AD87BE876B857C8580
:1017A0008D859E8520E030E04AEF54E40E941F02C0
:1017B000DC01CB018F839887A987BA876F817885F1
:1017C00089859A8520E030E040E85FE30E94790354
:1017D00088232CF481E090E09E838D833FC06F814D
:1017E000788589859A8520E03FEF4FE757E40E948E
:1017F000190318164CF56B857C858D859E8520E038
:1018000030E040E251E40E941F02DC01CB01BC0148
:10181000CD010E944900DC01CB019E838D830FC066
:1018200088EC90E09C838B838B819C810197F1F7FE
:101830009C838B838D819E8101979E838D838D8177
:101840009E81009769F714C06F81788589859A8594
:101850000E944900DC01CB019E838D838D819E8196
:101860009A83898389819A810197F1F79A83898381
:1018700080E060E00E948F0C81E060E00E948F0CAD
:1018800082E060E00E948F0C83E063E00E948F0C96
:1018900084E060EF0E948F0C85E060E00E948F0C76
:1018A00086E06EE00E948F0C0E94770C2E960FB699
:1018B000F894DEBF0FBECDBFCF91DF910895DF93C7
:1018C000CF93CDB7DEB781E064E040E00E94250908
:1018D000CF91DF910895DF93CF93CDB7DEB781E04D
:1018E00064E041E00E942509CF91DF910895DF93E4
:1018F000CF93CDB7DEB783E060E041E00E942509D9
:10190000CF91DF910895DF93CF93CDB7DEB783E01A
:1019100060E041E00E942509CF91DF910895DF93B7
:10192000CF9300D000D0CDB7DEB78B836C838B8193
:10193000806289838C818A830E945F0C89810E94E6
:10194000B3078A810E94B3070E946B0C0F900F901F
:101950000F900F90CF91DF910895DF93CF9300D038
:1019600000D000D0CDB7DEB78B837D836C834E83F0
:101970000E945F0C8B8180620E94B3071A821982D9
:101980000FC029813A818C819D81FC01E20FF31FF8
:1019900080810E94B30789819A8101969A83898305
:1019A0008E81282F30E089819A81821793074CF32A
:1019B0000E946B0C26960FB6F894DEBF0FBECDBF0B
:1019C000CF91DF910895DF93CF9300D0CDB7DEB7ED
:1019D0008A8319820E945F0C8A810E94B3078FEF6D
:1019E0000E94B30789830E946B0C89810F900F902E
:1019F000CF91DF910895DF93CF930F92CDB7DEB7EC
:101A000089830E945F0C89810E94B3070E946B0C3E
:101A10000F90CF91DF910895DF93CF9300D00F9275
:101A2000CDB7DEB79A8389836B830E94830C85E0F0
:101A30006B810E948F0C29813A8180E1B90145E0D8
:101A40000E94AD0C80E00E94E30C982F926080E031
:101A5000692F0E948F0C0E94770C0F900F900F90AF
:101A6000CF91DF910895DF93CF93CDB7DEB7629723
:101A70000FB6F894DEBF0FBECDBF998B888B1F8643
:101A80000E945F0C80EA0E94B307E889F98980818F
:101A90000E94B30788899989FC01319680810E9450
:101AA000B3070E946B0C80E090E0A0E0B0E48B876D
:101AB0009C87AD87BE876B857C858D859E8520E064
:101AC00030E04AEF54E40E941F02DC01CB018F8317
:101AD0009887A987BA876F81788589859A8520E05C
:101AE00030E040E85FE30E94790388232CF481E032
:101AF00090E09E838D833FC06F81788589859A852C
:101B000020E03FEF4FE757E40E94190318164CF509
:101B10006B857C858D859E8520E030E040E251E438
:101B20000E941F02DC01CB01BC01CD010E944900D3
:101B3000DC01CB019E838D830FC088EC90E09C83F9
:101B40008B838B819C810197F1F79C838B838D81A3
:101B50009E8101979E838D838D819E81009769F779
:101B600014C06F81788589859A850E944900DC01BF
:101B7000CB019E838D838D819E819A838983898108
:101B80009A810197F1F79A83898387E10E94E30C98
:101B90008F878F85882F90E080719070009769F013
:101BA0008F85882F90E088709070009731F481EED7
:101BB0000E94FB0C81E08A8B01C01A8A8A89629696
:101BC0000FB6F894DEBF0FBECDBFCF91DF91089561
:101BD000DF93CF9300D00F92CDB7DEB79A8389837E
:101BE0006B830E94830C85E06B810E948F0C82E0E6
:101BF0000E94E30C982F926082E0692F0E948F0C64
:101C000029813A818BE0B90145E00E94AD0C82E167
:101C100062E00E948F0C80E00E94E30C982F93609A
:101C200080E0692F0E948F0C0E94770C0F900F901C
:101C30000F90CF91DF910895DF93CF9300D00F9253
:101C4000CDB7DEB78A83198287E00E94E30C8983CF
:101C50008981882F90E080749070009799F0898135
:101C6000282F30E08A81882F90E0880F991F8223E7
:101C70009323009739F087E060E40E948F0C81E0A5
:101C80008B8301C01B828B810F900F900F90CF919F
:101C9000DF9108950F931F93DF93CF93CDB7DEB7F6
:101CA00060970FB6F894DEBF0FBECDBF988B8F87BD
:101CB0000E945F0C81E60E94B3078FEF0E94B3077A
:101CC000EF85F88980838F8598898C010F5F1F4F7E
:101CD0008FEF0E94B307F80180830E946B0C80E0B5
:101CE00090E0A0E0B0E48B879C87AD87BE876B85D2
:101CF0007C858D859E8520E030E04AEF54E40E948B
:101D00001F02DC01CB018F839887A987BA876F8177
:101D1000788589859A8520E030E040E85FE30E947D
:101D2000790388232CF481E090E09E838D833FC06B
:101D30006F81788589859A8520E03FEF4FE757E4EA
:101D40000E94190318164CF56B857C858D859E8540
:101D500020E030E040E251E40E941F02DC01CB01B0
:101D6000BC01CD010E944900DC01CB019E838D8323
:101D70000FC088EC90E09C838B838B819C810197C2
:101D8000F1F79C838B838D819E8101979E838D8348
:101D90008D819E81009769F714C06F817885898550
:101DA0009A850E944900DC01CB019E838D838D8141
:101DB0009E819A83898389819A810197F1F79A8319
:101DC000898382EE0E94FB0C60960FB6F894DEBF0A
:101DD0000FBECDBFCF91DF911F910F910895DF937B
:101DE000CF93CDB7DEB782E065E041E00E943A08CC
:101DF00082E065E041E00E942509CF91DF910895DE
:101E0000DF93CF93CDB7DEB782E067E041E00E9479
:101E10003A0882E067E041E00E942509CF91DF9116
:101E20000895DF93CF93CDB7DEB782E065E040E061
:101E30000E942509CF91DF910895DF93CF93CDB70D
:101E4000DEB782E065E041E00E942509CF91DF9195
:101E50000895DF93CF93CDB7DEB782E067E040E02F
:101E60000E942509CF91DF910895DF93CF93CDB7DD
:101E7000DEB782E067E041E00E942509CF91DF9163
:101E80000895DF93CF9300D00F92CDB7DEB789834B
:101E90008981282F30E03B832A838A819B8182308D
:101EA000910559F12A813B812330310509F444C061
:101EB0008A819B818130910509F07AC080E061E0E0
:101EC00041E00E943A0880E066E041E00E943A0862
:101ED00080E060E041E00E943A0880E061E040E09C
:101EE0000E94250980E066E040E00E94250980E02C
:101EF00060E040E00E9425095BC080E063E041E0D3
:101F00000E943A0880E064E041E00E943A0880E0E4
:101F100064E041E00E943A0880E063E040E00E9413
:101F2000250980E064E040E00E94250980E064E04B
:101F300040E00E9425093CC080E061E041E00E9451
:101F40003A0880E066E041E00E943A0880E063E001
:101F500041E00E943A0880E064E041E00E943A08D3
:101F600080E060E041E00E943A0880E064E041E007
:101F70000E943A0880E061E040E00E94250980E08C
:101F800066E040E00E94250980E063E040E00E94B6
:101F9000250980E064E040E00E94250980E060E0DF
:101FA00040E00E94250980E064E040E00E942509AD
:101FB0000F900F900F90CF91DF910895DF93CF9303
:101FC000CDB7DEB728970FB6F894DEBF0FBECDBFF2
:101FD00089836A8380E060E041E00E94250989816D
:101FE000282F30E038872F838F81988581309105A5
:101FF00031F02F81388522303105B1F168C08A81F6
:10200000282F30E03E832D838D819E818130910584
:10201000A9F02D813E8122303105D9F08D819E813C
:10202000009709F054C080E061E040E00E9425097B
:1020300080E066E040E00E94250949C080E061E060
:1020400041E00E94250980E066E040E00E94250909
:102050003EC080E061E040E00E94250980E066E04B
:1020600041E00E94250933C08A81282F30E03C835B
:102070002B838B819C8181309105A1F02B813C8148
:1020800022303105D1F08B819C81009701F580E0F1
:1020900063E040E00E94250980E064E040E00E94A7
:1020A000250915C080E063E041E00E94250980E039
:1020B00064E040E00E9425090AC080E063E040E05F
:1020C0000E94250980E064E041E00E9425092896ED
:1020D0000FB6F894DEBF0FBECDBFCF91DF9108954C
:1020E000DF93CF93CDB7DEB782E061E041E00E949D
:1020F0003A0882E061E040E00E942509CF91DF913B
:102100000895DF93CF93CDB7DEB782E061E041E081
:102110000E942509CF91DF910895DF93CF93CDB72A
:10212000DEB782E061E040E00E942509CF91DF91B7
:102130000895DF93CF93CDB7DEB760970FB6F894CD
:10214000DEBF0FBECDBF188A1F860E94EF0E0E9411
:10215000000F0E94780B0E94701081E00E94410FD6
:102160000E94110F0E94290F0E94811080E090E0D0
:10217000AAEFB3E48B879C87AD87BE876B857C8590
:102180008D859E8520E030E04AEF54E40E941F02D6
:10219000DC01CB018F839887A987BA876F81788507
:1021A00089859A8520E030E040E85FE30E9479036A
:1021B00088232CF481E090E09E838D833FC06F8163
:1021C000788589859A8520E03FEF4FE757E40E94A4
:1021D000190318164CF56B857C858D859E8520E04E
:1021E00030E040E251E40E941F02DC01CB01BC015F
:1021F000CD010E944900DC01CB019E838D830FC07D
:1022000088EC90E09C838B838B819C810197F1F714
:102210009C838B838D819E8101979E838D838D818D
:102220009E81009769F714C06F81788589859A85AA
:102230000E944900DC01CB019E838D838D819E81AC
:102240009A83898389819A810197F1F79A83898397
:102250000E941D0F0E94350F0E948D100E94AB0B33
:1022600088E690E06AE00E94E80D0E94AB0B88E6E9
:1022700090E06AE00E94E80D82E380937000109283
:10228000710081E00E941C0E882309F46AC080E777
:1022900090E00E944A0E0E94290F80917000882FC2
:1022A00090E09C01220F331FC901880F991F880FEE
:1022B000991F820F931F805E9C4F988B8F878F850D
:1022C00098890E94840B80917100882F90E0827021
:1022D0009070009779F080917100882F90E088705D
:1022E0009070009739F00E94110F81E061E00E9428
:1022F000DE0F1BC080917100882F90E0827090707B
:10230000009779F080917100882F90E08071907033
:10231000009739F00E94110F81E062E00E94DE0F09
:1023200004C081E060E00E94DE0F80917100882F80
:1023300090E084709070009729F00E94110F0E9425
:10234000811002C00E948D1080917100882F90E052
:1023500081709070882311F00E94110F0E941D0F50
:1023600084CF0E94350F81CFA1E21A2EAA1BBB1B7E
:10237000FD010DC0AA1FBB1FEE1FFF1FA217B30751
:10238000E407F50720F0A21BB30BE40BF50B661F67
:10239000771F881F991F1A9469F76095709580952B
:1023A00090959B01AC01BD01CF0108952F923F9202
:1023B0004F925F926F927F928F929F92AF92BF9255
:1023C000CF92DF92EF92FF920F931F93CF93DF9301
:1023D000CDB7DEB7CA1BDB0B0FB6F894DEBF0FBE5E
:1023E000CDBF09942A88398848885F846E847D84AB
:1023F0008C849B84AA84B984C884DF80EE80FD80AD
:102400000C811B81AA81B981CE0FD11D0FB6F89422
:0E241000DEBF0FBECDBFED010895F894FFCFE3
:0E241E000000000000000000EEDDCCBBAA00B4
:00000001FF
